:100000000C9435000C945D000C945D000C945D0024
:100010000C945D000C945D000C945D000C945D00EC
:100020000C945D000C945D000C945D000C945D00DC
:100030000C945D000C945D000C945D000C945D00CC
:100040000C94FE040C945D000C945D000C945D0017
:100050000C945D000C945D000C945D000C945D00AC
:100060000C945D000C945D00480511241FBECFEF79
:10007000D8E0DEBFCDBF11E0A0E0B1E0E6EBFEE0EE
:1000800002C005900D92A232B107D9F721E0A2E299
:10009000B1E001C01D92A63FB207E1F710E0C5E351
:1000A000D0E004C02197FE010E943F07C433D1076E
:1000B000C9F70E9478050C9459070C9400003FB7CB
:1000C000F8948091BE019091BF01A091C001B091C0
:1000D000C10126B5A89B05C02F3F19F00196A11DAF
:1000E000B11D3FBFBA2FA92F982F8827820F911DCE
:1000F000A11DB11DBC01CD0142E0660F771F881F15
:10010000991F4A95D1F708953F924F925F926F924F
:100110007F928F929F92AF92BF92CF92DF92EF9297
:10012000FF920F931F93CF93DF9300D01F92CDB711
:10013000DEB7F82E8091D5019091D601A091D7011C
:10014000B091D801892B8A2B8B2BE9F00E945F009C
:100150000091CE011091CF012091D0013091D101B9
:10016000DC01CB01801B910BA20BB30B0091D501DD
:100170001091D6012091D7013091D80180179107B5
:10018000A207B307B8F20E945F006093CE0170939C
:10019000CF018093D0019093D101E091DD01F091E6
:1001A000DE01309759F04091D9015091DA01609108
:1001B000DB017091DC018F2D0995F82E0091CC01A7
:1001C0001091CD014F2C512C612C712C0115110572
:1001D00009F45FC0D8011C96EC901C978091D30164
:1001E0009091D4018436910510F41C961C92D8018C
:1001F000ED91FC91A280B38019821A821B82F110CA
:1002000014C0F80145855685628173819E012F5F78
:100210003F4FC801F5010995D8011C96EC921C9737
:1002200014960D911C911597D1CFF8013696CE01F9
:1002300001966C01480199E0890E911C21912223BD
:1002400009F132803320F1F0822F90E0A0E0B0E09D
:100250009C01AD012F5F3F4F4F4F5F4FC301B20174
:100260000E94D3069B01AC01832D90E0A0E0B0E09A
:10027000BC01CD016F5F7F4F8F4F9F4F0E94D30610
:10028000D6018C93BFEFCB1ADB0AE815F905B1F65E
:10029000B8CF8091CA019091CB019C012F5F3F4F55
:1002A0003093CB012093CA0149970CF447C08FB714
:1002B000F8940091C2011091C3012091C4013091C2
:1002C000C5018FBFE091CA01F091CB0188EE93E0A8
:1002D000E89FB001E99F700DF89F700D1124072E63
:1002E000000C880B990BC090C601D090C701E0901C
:1002F000C801F090C901A90198012C193D094E09C6
:100300005F090E94F7063093D4012093D301109225
:10031000CB011092CA012FB7F8948091C20190913D
:10032000C301A091C401B091C5012FBF8093C60144
:100330009093C701A093C801B093C9010F900F908B
:100340000F90DF91CF911F910F91FF90EF90DF9071
:10035000CF90BF90AF909F908F907F906F905F9065
:100360004F903F90089580E991E008950F931F9377
:10037000CF93DF93209123012F5F322F377030937B
:10038000230120FF02C020E801C020E031FD2064ED
:10039000347009F02062205FFC01EC01239600E03C
:1003A00011E06485662331F070E0C8010E94E30625
:1003B0006F5F01C060E06187322F369F030E30E02F
:1003C000311D1124311102C0168202C03150368312
:1003D000662311F0615061873196CE17DF0709F768
:1003E000DF91CF911F910F9108954F925F926F927D
:1003F0007F928F92AF92BF92CF92DF92EF920F9344
:100400001F93CF93DF933C01EB010E945F00F30148
:1004100027853089621B730B6A307105B0F3F8943D
:10042000E881F9817BB170616BB16F7E6BB9CA8471
:100430008F812C2D281B822F2F83BF844A805B80C5
:100440001D850C85DE841F5F0F5FD3949E813885E8
:10045000A984EB844181D20120E0C32F522F322F97
:100460003181442788943111380F08F43FEF81958A
:10047000889410FD430F4795889411FD430F4795CD
:10048000889412FD430F4795889413FD430F4795B9
:10049000889414FD430F4795889415FD430F4795A5
:1004A000889416FD430F4795889417FD430F479591
:1004B0008894232F1111242F8C0D422F002C7BB9EF
:1004C00000C047FF6BB930812227889400C000C06C
:1004D000002C6BB93111390F00C0002C7BB900C062
:1004E00046FF6BB908F43FEF9195889400C000C0B7
:1004F000002C6BB900FD230F00C0002C7BB900C09D
:1005000045FF6BB92795889401FD230F00C000C0FB
:10051000002C6BB92795889400C0002C7BB900C0D3
:1005200044FF6BB902FD230F2795889400C000C0DB
:10053000002C6BB903FD230F00C0002C7BB900C059
:1005400043FF6BB92795889404FD230F00C000C0BA
:10055000002C6BB92795889400C0002C7BB900C093
:1005600042FF6BB905FD230F2795889400C000C09A
:10057000002C6BB906FD230F00C0002C7BB900C016
:1005800041FF6BB92795889407FD230F00C000C079
:10059000002C6BB92795889400C0002C7BB900C053
:1005A00040FF6BB9432F0111422F9A0D00C000C0CC
:1005B000002C6BB900C000C0002C7BB900C047FF05
:1005C0006BB932812227889400C000C0002C6BB91F
:1005D00031113C0F00C0002C7BB900C046FF6BB945
:1005E00008F43FEFEB0DF11D00C000C0002C6BB90B
:1005F000D0FC230F00C0002C7BB900C045FF6BB9B5
:1006000027958894D1FC230F00C000C0002C6BB943
:100610002795889400C0002C7BB900C044FF6BB9BB
:10062000D2FC230F2795889400C000C0002C6BB922
:10063000D3FC230F00C0002C7BB900C043FF6BB973
:1006400027958894D4FC230F00C000C0002C6BB900
:100650002795889400C0002C7BB900C042FF6BB97D
:10066000D5FC230F2795889400C000C0002C6BB9DF
:10067000D6FC230F00C0002C7BB900C041FF6BB932
:1006800027958894D7FC230F00C000C0002C6BB9BD
:100690002795889400C0002C7BB900C040FF6BB93F
:1006A000432FD110422FC19500C000C0002C6BB960
:1006B000CE0D00C000C07BB900C047FF6BB93181CF
:1006C0002227889400C000C0002C6BB93111380F6C
:1006D00000C0002C7BB900C046FF6BB908F43FEFA7
:1006E0008195889400C000C0002C6BB910FD230FC9
:1006F00000C0002C7BB900C045FF6BB927958894DA
:1007000011FD230F00C000C0002C6BB92795889401
:1007100000C0002C7BB900C044FF6BB912FD230F51
:100720002795889400C000C0002C6BB913FD230FDF
:1007300000C0002C7BB900C043FF6BB9279588949B
:1007400014FD230F00C000C0002C6BB927958894BE
:1007500000C0002C7BB900C042FF6BB915FD230F10
:100760002795889400C000C0002C6BB916FD230F9C
:1007700000C0002C7BB900C041FF6BB9279588945D
:1007800017FD230F00C000C0002C6BB9279588947B
:1007900000C0002C7BB900C040FF6BB9432F111182
:1007A000422F8C0D00C000C0002C6BB9119709F0CE
:1007B00086CE20EE31E0D2010E941907DC01CB0188
:1007C000F4E0B695A79597958795FA95D1F720E02F
:1007D00030E0B901EAE94E9E040C611D5E9E600D99
:1007E000711D1124650D711D860F971FA11DB11D6F
:1007F000893E43E09407A105B10508F434C0885E42
:100800009340A109B10942E0B695A79597958795C0
:100810004A95D1F747E0849F080E211D949F200D33
:10082000311D1124290F311D6091220170E0860FC6
:10083000971F820F931F4091C2015091C301609195
:10084000C4017091C501292F3327420F531F611D29
:10085000711D4093C2015093C3016093C401709312
:10086000C5018093220178940E945F00F301708B90
:100870006787DF91CF911F910F91EF90DF90CF901D
:10088000BF90AF908F907F906F905F904F90089542
:10089000549A08950F931F93CF93DF93CDB7DEB78C
:1008A00062970FB6F894DEBF0FBECDBF8C01F90181
:1008B000DC011C968C917A8369835C834B835E8315
:1008C0004D8390819D8791819E8792819F87813002
:1008D00029F4CE0101960E94B60106C01C861B8633
:1008E0001A86198618861F8283E0888B1A8A198ACD
:1008F000D801ED91FC910484F585E02DBE016F5F78
:100900007F4FC801099562960FB6F894DEBF0FBEFF
:10091000CDBFDF91CF911F910F9108950F931F933A
:10092000CF93DF93CDB7DEB762970FB6F894DEBFF3
:100930000FBECDBF8C01F901DC011C968C917A832E
:1009400069835C834B835E834D8390819D87918116
:100950009E8792819F87813029F4CE0101960E9463
:10096000B60106C01C861B861A86198618861F8249
:10097000188A1A8A198AD801ED91FC910484F585A8
:10098000E02DBE016F5F7F4FC801099562960FB6DB
:10099000F894DEBF0FBECDBFDF91CF911F910F91B5
:1009A000089580E090E00895FC018585968508957E
:1009B000CF93DF9300D000D000D0CDB7DEB7AB012E
:1009C0001C821D821E82DC01ED91FC910190F08160
:1009D000E02D19821A821B829E012F5F3F4FBE01BC
:1009E0006C5F7F4F099526960FB6F894DEBF0FBE59
:1009F000CDBFDF91CF9108950E9454071F920F92AF
:100A00000FB60F9211242F933F938F939F93AF9321
:100A1000BF938091C2019091C301A091C401B09194
:100A2000C5013091BD0123E0230F2D3720F401963D
:100A3000A11DB11D05C026E8230F0296A11DB11D01
:100A40002093BD018093C2019093C301A093C40180
:100A5000B093C5018091BE019091BF01A091C001EA
:100A6000B091C1010196A11DB11D8093BE0190936B
:100A7000BF01A093C001B093C101BF91AF919F91FD
:100A80008F913F912F910F900FBE0F901F9018954F
:100A9000E2EDF1E08FEF80831282118214861386DB
:100AA0004FEF5FEFBA01478350876187728723E07A
:100AB00030E03093F5012093F401EFEDF1E0108286
:100AC000118212829CE89383948395838683878323
:100AD00080872BE72187828726E123878487858784
:100AE00086879787908B918B128A138A148A089530
:100AF000789484B5826084BD84B5816084BD85B5F9
:100B0000826085BD85B5816085BD80916E00816004
:100B100080936E00109281008091810082608093AA
:100B200081008091810081608093810080918000AC
:100B30008160809380008091B10084608093B100D7
:100B40008091B00081608093B00080917A008460D1
:100B500080937A0080917A00826080937A008091FD
:100B60007A00816080937A0080917A008068809317
:100B70007A001092C10080913701811145C0109216
:100B80002901109228018FEF80932C0180932D0171
:100B900080932E0180932F01809330018093310147
:100BA00081E080933201109234011092330110924F
:100BB0002B0110922A018091CC019091CD01892BBB
:100BC00031F486E291E09093CD018093CC01E091E5
:100BD0002401F0912501309721F086E291E0958380
:100BE000848386E291E09093250180932401109202
:100BF00036011092350184E191E0909327018093B2
:100C0000260181E080933701549A8FE391E090931D
:100C100029018093280185E190E09093340180932D
:100C200033018091D5019091D601A091D701B09167
:100C3000D801843C29E09207A105B10520F484EC99
:100C400099E0A0E0B0E08093D5019093D601A09305
:100C5000D701B093D8010091F4011091F501CFEDC7
:100C6000D1E020E030E0E880F9804A81F901EE0F20
:100C7000FF1FE20FF31FE15CFE4FE082F18242832F
:100C80002F5F3F4F3396C901B8010E94E306892BBD
:100C9000A1F7239681E0C43FD80729F7CEE7D1E03A
:100CA000AEE7B1E0EFE3F1E080818C9381811196B2
:100CB0008C931197828112968C9312973396139688
:100CC000CE17DF0789F78091D2010E94840000E0EF
:100CD00010E00E945F004B015C0184E6C82ED12C1D
:100CE000E12CF12C0E945F00DC01CB0188199909ED
:100CF000AA09BB09883E9340A105B10598F321E0FC
:100D0000C21AD108E108F10888EE880E83E0981E27
:100D1000A11CB11CC114D104E104F10419F7209104
:100D2000BA013091BB014091BC01EFE3F1E0AEE7C5
:100D3000B1E080E090E08431910559F05C915383FB
:100D400011965C911197548312965C91129755837A
:100D500006C020933F01309340014093410101962A
:100D6000139633968531910531F78091D2010E9417
:100D70008400AEE7B1E0EFE3F1E080818C93818104
:100D800011968C931197828112968C9312973396B9
:100D90001396CE17DF0789F70115110509F499CFCE
:100DA0000E94000096CFDB018F939F930E94200743
:100DB000BF91AF91A29F800D911DA39F900DB29FF7
:100DC000900D1124089597FB072E16F4009407D078
:100DD00077FD09D00E942B0707FC05D03EF49095C3
:100DE00081959F4F0895709561957F4F0895A1E279
:100DF0001A2EAA1BBB1BFD010DC0AA1FBB1FEE1F95
:100E0000FF1FA217B307E407F50720F0A21BB30BDF
:100E1000E40BF50B661F771F881F991F1A9469F75B
:100E200060957095809590959B01AC01BD01CF01B7
:100E300008950E944507B7FF0895821B930B0895FC
:100E40000E944507A59F900DB49F900DA49F800D13
:100E5000911D11240895AA1BBB1B51E107C0AA1FB5
:100E6000BB1FA617B70710F0A61BB70B881F991F4B
:100E70005A95A9F780959095BC01CD010895EE0F84
:100E8000FF1F0590F491E02D0994A29FB001B39F3C
:100E9000C001A39F700D811D1124911DB29F700D83
:100EA000811D1124911D089581E090E0F8940C9427
:060EB0005907F894FFCF82
:100EB60000000000FC04FC04FC04D804D404D104A3
:100EC600000000008E044A044804D804D404B30188
:020ED600F50124
:00000001FF
